{
  "_format": "hh-sol-artifact-1",
  "contractName": "CentralFund",
  "sourceName": "contracts/CentralFund.sol",
  "abi": [
    {
      "inputs": [
        {
          "internalType": "string",
          "name": "_fundName",
          "type": "string"
        },
        {
          "internalType": "string",
          "name": "_description",
          "type": "string"
        },
        {
          "internalType": "string",
          "name": "_goal",
          "type": "string"
        },
        {
          "internalType": "address",
          "name": "_owner",
          "type": "address"
        },
        {
          "internalType": "uint256",
          "name": "_endAt",
          "type": "uint256"
        }
      ],
      "name": "createFund",
      "outputs": [],
      "stateMutability": "nonpayable",
      "type": "function"
    },
    {
      "inputs": [
        {
          "internalType": "uint256",
          "name": "",
          "type": "uint256"
        }
      ],
      "name": "funds",
      "outputs": [
        {
          "internalType": "contract Fund",
          "name": "",
          "type": "address"
        }
      ],
      "stateMutability": "view",
      "type": "function"
    },
    {
      "inputs": [],
      "name": "nFunds",
      "outputs": [
        {
          "internalType": "uint256",
          "name": "",
          "type": "uint256"
        }
      ],
      "stateMutability": "view",
      "type": "function"
    },
    {
      "inputs": [
        {
          "internalType": "address",
          "name": "",
          "type": "address"
        }
      ],
      "name": "ownerToNfunds",
      "outputs": [
        {
          "internalType": "uint256",
          "name": "",
          "type": "uint256"
        }
      ],
      "stateMutability": "view",
      "type": "function"
    },
    {
      "inputs": [
        {
          "internalType": "address",
          "name": "",
          "type": "address"
        },
        {
          "internalType": "uint256",
          "name": "",
          "type": "uint256"
        }
      ],
      "name": "walletToFunds",
      "outputs": [
        {
          "internalType": "contract Fund",
          "name": "",
          "type": "address"
        }
      ],
      "stateMutability": "view",
      "type": "function"
    }
  ],
  "bytecode": "0x6080604052600060015534801561001557600080fd5b50611ce8806100256000396000f3fe60806040523480156200001157600080fd5b50600436106200005e5760003560e01c80634e4fad38146200006357806371892cc814620000995780637b8e889514620000bb578063dde6607114620000f1578063fcdc22c41462000127575b600080fd5b6200008160048036038101906200007b919062000479565b62000147565b6040516200009091906200052b565b60405180910390f35b620000a362000196565b604051620000b2919062000559565b60405180910390f35b620000d96004803603810190620000d3919062000576565b6200019c565b604051620000e891906200052b565b60405180910390f35b6200010f6004803603810190620001099190620005a8565b620001dc565b6040516200011e919062000559565b60405180910390f35b6200014560048036038101906200013f919062000648565b620001f4565b005b600260205281600052604060002081815481106200016457600080fd5b906000526020600020016000915091509054906101000a900473ffffffffffffffffffffffffffffffffffffffff1681565b60015481565b60008181548110620001ad57600080fd5b906000526020600020016000915054906101000a900473ffffffffffffffffffffffffffffffffffffffff1681565b60036020528060005260406000206000915090505481565b600088888888888833886040516200020c90620003c1565b6200021f989796959493929190620007af565b604051809103906000f0801580156200023c573d6000803e3d6000fd5b509050600260008473ffffffffffffffffffffffffffffffffffffffff1673ffffffffffffffffffffffffffffffffffffffff168152602001908152602001600020819080600181540180825580915050600190039060005260206000200160009091909190916101000a81548173ffffffffffffffffffffffffffffffffffffffff021916908373ffffffffffffffffffffffffffffffffffffffff1602179055506001600360008573ffffffffffffffffffffffffffffffffffffffff1673ffffffffffffffffffffffffffffffffffffffff168152602001908152602001600020600082825462000331919062000856565b925050819055506000819080600181540180825580915050600190039060005260206000200160009091909190916101000a81548173ffffffffffffffffffffffffffffffffffffffff021916908373ffffffffffffffffffffffffffffffffffffffff1602179055506001806000828254620003af919062000856565b92505081905550505050505050505050565b6113ff80620008b483390190565b600080fd5b600080fd5b600073ffffffffffffffffffffffffffffffffffffffff82169050919050565b60006200040682620003d9565b9050919050565b6200041881620003f9565b81146200042457600080fd5b50565b60008135905062000438816200040d565b92915050565b6000819050919050565b62000453816200043e565b81146200045f57600080fd5b50565b600081359050620004738162000448565b92915050565b60008060408385031215620004935762000492620003cf565b5b6000620004a38582860162000427565b9250506020620004b68582860162000462565b9150509250929050565b6000819050919050565b6000620004eb620004e5620004df84620003d9565b620004c0565b620003d9565b9050919050565b6000620004ff82620004ca565b9050919050565b60006200051382620004f2565b9050919050565b620005258162000506565b82525050565b60006020820190506200054260008301846200051a565b92915050565b62000553816200043e565b82525050565b600060208201905062000570600083018462000548565b92915050565b6000602082840312156200058f576200058e620003cf565b5b60006200059f8482850162000462565b91505092915050565b600060208284031215620005c157620005c0620003cf565b5b6000620005d18482850162000427565b91505092915050565b600080fd5b600080fd5b600080fd5b60008083601f840112620006025762000601620005da565b5b8235905067ffffffffffffffff811115620006225762000621620005df565b5b602083019150836001820283011115620006415762000640620005e4565b5b9250929050565b60008060008060008060008060a0898b0312156200066b576200066a620003cf565b5b600089013567ffffffffffffffff8111156200068c576200068b620003d4565b5b6200069a8b828c01620005e9565b9850985050602089013567ffffffffffffffff811115620006c057620006bf620003d4565b5b620006ce8b828c01620005e9565b9650965050604089013567ffffffffffffffff811115620006f457620006f3620003d4565b5b620007028b828c01620005e9565b94509450506060620007178b828c0162000427565b92505060806200072a8b828c0162000462565b9150509295985092959890939650565b600082825260208201905092915050565b82818337600083830152505050565b6000601f19601f8301169050919050565b60006200077983856200073a565b9350620007888385846200074b565b62000793836200075a565b840190509392505050565b620007a981620003f9565b82525050565b600060a0820190508181036000830152620007cc818a8c6200076b565b90508181036020830152620007e381888a6200076b565b90508181036040830152620007fa8186886200076b565b90506200080b60608301856200079e565b6200081a608083018462000548565b9998505050505050505050565b7f4e487b7100000000000000000000000000000000000000000000000000000000600052601160045260246000fd5b600062000863826200043e565b915062000870836200043e565b9250827fffffffffffffffffffffffffffffffffffffffffffffffffffffffffffffffff03821115620008a857620008a762000827565b5b82820190509291505056fe61010060405260006006553480156200001757600080fd5b50604051620013ff380380620013ff83398181016040528101906200003d9190620003fe565b84600090805190602001906200005592919062000111565b5083600190805190602001906200006e92919062000111565b5082600290805190602001906200008792919062000111565b5042608081815250508060a081815250508173ffffffffffffffffffffffffffffffffffffffff1660c08173ffffffffffffffffffffffffffffffffffffffff1660601b815250503073ffffffffffffffffffffffffffffffffffffffff1660e08173ffffffffffffffffffffffffffffffffffffffff1660601b81525050505050505062000548565b8280546200011f9062000512565b90600052602060002090601f0160209004810192826200014357600085556200018f565b82601f106200015e57805160ff19168380011785556200018f565b828001600101855582156200018f579182015b828111156200018e57825182559160200191906001019062000171565b5b5090506200019e9190620001a2565b5090565b5b80821115620001bd576000816000905550600101620001a3565b5090565b6000604051905090565b600080fd5b600080fd5b600080fd5b600080fd5b6000601f19601f8301169050919050565b7f4e487b7100000000000000000000000000000000000000000000000000000000600052604160045260246000fd5b6200022a82620001df565b810181811067ffffffffffffffff821117156200024c576200024b620001f0565b5b80604052505050565b600062000261620001c1565b90506200026f82826200021f565b919050565b600067ffffffffffffffff821115620002925762000291620001f0565b5b6200029d82620001df565b9050602081019050919050565b60005b83811015620002ca578082015181840152602081019050620002ad565b83811115620002da576000848401525b50505050565b6000620002f7620002f18462000274565b62000255565b905082815260208101848484011115620003165762000315620001da565b5b62000323848285620002aa565b509392505050565b600082601f830112620003435762000342620001d5565b5b815162000355848260208601620002e0565b91505092915050565b600073ffffffffffffffffffffffffffffffffffffffff82169050919050565b60006200038b826200035e565b9050919050565b6200039d816200037e565b8114620003a957600080fd5b50565b600081519050620003bd8162000392565b92915050565b6000819050919050565b620003d881620003c3565b8114620003e457600080fd5b50565b600081519050620003f881620003cd565b92915050565b600080600080600060a086880312156200041d576200041c620001cb565b5b600086015167ffffffffffffffff8111156200043e576200043d620001d0565b5b6200044c888289016200032b565b955050602086015167ffffffffffffffff81111562000470576200046f620001d0565b5b6200047e888289016200032b565b945050604086015167ffffffffffffffff811115620004a257620004a1620001d0565b5b620004b0888289016200032b565b9350506060620004c388828901620003ac565b9250506080620004d688828901620003e7565b9150509295509295909350565b7f4e487b7100000000000000000000000000000000000000000000000000000000600052602260045260246000fd5b600060028204905060018216806200052b57607f821691505b60208210811415620005425762000541620004e3565b5b50919050565b60805160a05160c05160601c60e05160601c610e696200059660003960006109290152600081816102da015261072001526000818161035f01526106f6015260006109050152610e696000f3fe6080604052600436106100c25760003560e01c80638da5cb5b1161007f578063b69ef8a811610059578063b69ef8a81461021a578063c0f801de14610245578063cf09e0d014610282578063e82bef29146102ad576100c2565b80638da5cb5b146101ba5780639ce1413b146101e5578063b60d428814610210576100c2565b80633ccfd60b146100c757806340193883146100d1578063413abf9a146100fc5780637284e416146101395780637cc3ae8c1461016457806386270d0d1461018f575b600080fd5b6100cf6102d8565b005b3480156100dd57600080fd5b506100e66105c0565b6040516100f39190610a8b565b60405180910390f35b34801561010857600080fd5b50610123600480360381019061011e9190610b10565b61064e565b6040516101309190610b56565b60405180910390f35b34801561014557600080fd5b5061014e610666565b60405161015b9190610a8b565b60405180910390f35b34801561017057600080fd5b506101796106f4565b6040516101869190610b56565b60405180910390f35b34801561019b57600080fd5b506101a4610718565b6040516101b19190610b56565b60405180910390f35b3480156101c657600080fd5b506101cf61071e565b6040516101dc9190610b80565b60405180910390f35b3480156101f157600080fd5b506101fa610742565b6040516102079190610a8b565b60405180910390f35b6102186107d0565b005b34801561022657600080fd5b5061022f6108be565b60405161023c9190610b56565b60405180910390f35b34801561025157600080fd5b5061026c60048036038101906102679190610bc7565b6108c4565b6040516102799190610b80565b60405180910390f35b34801561028e57600080fd5b50610297610903565b6040516102a49190610b56565b60405180910390f35b3480156102b957600080fd5b506102c2610927565b6040516102cf9190610b80565b60405180910390f35b7f000000000000000000000000000000000000000000000000000000000000000073ffffffffffffffffffffffffffffffffffffffff163373ffffffffffffffffffffffffffffffffffffffff161461035d576040517f30cd747100000000000000000000000000000000000000000000000000000000815260040160405180910390fd5b7f00000000000000000000000000000000000000000000000000000000000000004210156103b7576040517fb1b03c9a00000000000000000000000000000000000000000000000000000000815260040160405180910390fd5b600060065414156103f4576040517f43f9e11000000000000000000000000000000000000000000000000000000000815260040160405180910390fd5b60003373ffffffffffffffffffffffffffffffffffffffff164760405161041a90610c25565b60006040518083038185875af1925050503d8060008114610457576040519150601f19603f3d011682016040523d82523d6000602084013e61045c565b606091505b50509050806104a0576040517f08c379a000000000000000000000000000000000000000000000000000000000815260040161049790610c86565b60405180910390fd5b60005b60048054905081101561054c576000600482815481106104c6576104c5610ca6565b5b9060005260206000200160009054906101000a900473ffffffffffffffffffffffffffffffffffffffff1690506000600360008373ffffffffffffffffffffffffffffffffffffffff1673ffffffffffffffffffffffffffffffffffffffff1681526020019081526020016000208190555050808061054490610d04565b9150506104a3565b50600067ffffffffffffffff81111561056857610567610d4d565b5b6040519080825280602002602001820160405280156105965781602001602082028036833780820191505090505b50600490805190602001906105ac92919061094b565b506000600581905550600060068190555050565b600280546105cd90610dab565b80601f01602080910402602001604051908101604052809291908181526020018280546105f990610dab565b80156106465780601f1061061b57610100808354040283529160200191610646565b820191906000526020600020905b81548152906001019060200180831161062957829003601f168201915b505050505081565b60036020528060005260406000206000915090505481565b6001805461067390610dab565b80601f016020809104026020016040519081016040528092919081815260200182805461069f90610dab565b80156106ec5780601f106106c1576101008083540402835291602001916106ec565b820191906000526020600020905b8154815290600101906020018083116106cf57829003601f168201915b505050505081565b7f000000000000000000000000000000000000000000000000000000000000000081565b60055481565b7f000000000000000000000000000000000000000000000000000000000000000081565b6000805461074f90610dab565b80601f016020809104026020016040519081016040528092919081815260200182805461077b90610dab565b80156107c85780601f1061079d576101008083540402835291602001916107c8565b820191906000526020600020905b8154815290600101906020018083116107ab57829003601f168201915b505050505081565b34600360003373ffffffffffffffffffffffffffffffffffffffff1673ffffffffffffffffffffffffffffffffffffffff168152602001908152602001600020600082825461081f9190610ddd565b9250508190555034600660008282546108389190610ddd565b925050819055506004339080600181540180825580915050600190039060005260206000200160009091909190916101000a81548173ffffffffffffffffffffffffffffffffffffffff021916908373ffffffffffffffffffffffffffffffffffffffff1602179055506001600560008282546108b59190610ddd565b92505081905550565b60065481565b600481815481106108d457600080fd5b906000526020600020016000915054906101000a900473ffffffffffffffffffffffffffffffffffffffff1681565b7f000000000000000000000000000000000000000000000000000000000000000081565b7f000000000000000000000000000000000000000000000000000000000000000081565b8280548282559060005260206000209081019282156109c4579160200282015b828111156109c35782518260006101000a81548173ffffffffffffffffffffffffffffffffffffffff021916908373ffffffffffffffffffffffffffffffffffffffff1602179055509160200191906001019061096b565b5b5090506109d191906109d5565b5090565b5b808211156109ee5760008160009055506001016109d6565b5090565b600081519050919050565b600082825260208201905092915050565b60005b83811015610a2c578082015181840152602081019050610a11565b83811115610a3b576000848401525b50505050565b6000601f19601f8301169050919050565b6000610a5d826109f2565b610a6781856109fd565b9350610a77818560208601610a0e565b610a8081610a41565b840191505092915050565b60006020820190508181036000830152610aa58184610a52565b905092915050565b600080fd5b600073ffffffffffffffffffffffffffffffffffffffff82169050919050565b6000610add82610ab2565b9050919050565b610aed81610ad2565b8114610af857600080fd5b50565b600081359050610b0a81610ae4565b92915050565b600060208284031215610b2657610b25610aad565b5b6000610b3484828501610afb565b91505092915050565b6000819050919050565b610b5081610b3d565b82525050565b6000602082019050610b6b6000830184610b47565b92915050565b610b7a81610ad2565b82525050565b6000602082019050610b956000830184610b71565b92915050565b610ba481610b3d565b8114610baf57600080fd5b50565b600081359050610bc181610b9b565b92915050565b600060208284031215610bdd57610bdc610aad565b5b6000610beb84828501610bb2565b91505092915050565b600081905092915050565b50565b6000610c0f600083610bf4565b9150610c1a82610bff565b600082019050919050565b6000610c3082610c02565b9150819050919050565b7f5769746864726177206661696c65640000000000000000000000000000000000600082015250565b6000610c70600f836109fd565b9150610c7b82610c3a565b602082019050919050565b60006020820190508181036000830152610c9f81610c63565b9050919050565b7f4e487b7100000000000000000000000000000000000000000000000000000000600052603260045260246000fd5b7f4e487b7100000000000000000000000000000000000000000000000000000000600052601160045260246000fd5b6000610d0f82610b3d565b91507fffffffffffffffffffffffffffffffffffffffffffffffffffffffffffffffff821415610d4257610d41610cd5565b5b600182019050919050565b7f4e487b7100000000000000000000000000000000000000000000000000000000600052604160045260246000fd5b7f4e487b7100000000000000000000000000000000000000000000000000000000600052602260045260246000fd5b60006002820490506001821680610dc357607f821691505b60208210811415610dd757610dd6610d7c565b5b50919050565b6000610de882610b3d565b9150610df383610b3d565b9250827fffffffffffffffffffffffffffffffffffffffffffffffffffffffffffffffff03821115610e2857610e27610cd5565b5b82820190509291505056fea2646970667358221220914e8549f0a1841703f8339f03ff73201fe7c196ef67f1e2695c654e79fcb84264736f6c63430008080033a26469706673582212203b75c95840bc10a01a80f50d68b3eedbfc84b778b7ac06ba11b3afd257b4e6d164736f6c63430008080033",
  "linkReferences": {},
  "deployedLinkReferences": {}
}